:020000040800F2
:1000000060F800209D01000885570008B9480008E5
:1000100081570008CD1000082D7D00080000000069
:100020000000000000000000000000003163000834
:100030005913000800000000B1580008F1730008CF
:10004000B7010008B7010008B7010008B7010008B0
:10005000B7010008B7010008B7010008B7010008A0
:10006000B7010008B7010008B7010008B701000890
:10007000B7010008B7010008B7010008B701000880
:10008000D9100008B7010008B7010008B70100083F
:10009000B7010008B7010008B7010008B701000860
:1000A000B7010008B7010008B7010008B701000850
:1000B000B7010008B7010008B7010008B701000840
:1000C000B7010008B7010008B7010008B701000830
:1000D000B7010008457C00085D7C0008B7010008F6
:1000E000B7010008B7010008B7010008B701000810
:1000F000B7010008B7010008B7010008B701000800
:10010000B7010008B7010008B7010008B7010008EF
:10011000B7010008B7010008B7010008C174000862
:10012000B7010008E9100008F9100008B70100083D
:10013000B7010008B7010008B7010008B7010008BF
:10014000B7010008B7010008B7010008B7010008AF
:10015000B7010008B7010008B70100086D7C00086E
:10016000B7010008B7010008B7010008B70100088F
:10017000B7010008B7010008B7010008000000003F
:10018000B7010008B7010008DFF80CD000F07EFCD2
:10019000004800474D95000860F800200648804759
:1001A00006480047FEE7FEE7FEE7FEE7FEE7FEE75C
:1001B000FEE7FEE7FEE7FEE7A574000889010008F8
:1001C0002DE9F05F0546002092469B46884606468C
:1001D000814640241BE0284641464746224600F01F
:1001E000CBFA53465A46C01A914110D311461846CD
:1001F000224600F0B2FA2D1A67EB01084F4622465C
:100200000120002100F0A9FA17EB00094E41201E41
:10021000A4F10104DFDC484631462A464346BDE8E6
:10022000F09F2DE9F0410024061B254671F10006E0
:1002300005DA01240027D0EB070067EB0101161E49
:1002400073F1000605DA0027D2EB0702012567EB00
:100250000303FFF7B5FF86460E4617469C46AC42A1
:1002600004D00025D0EB050E65EB010624B100207B
:10027000D2EB000760EB030C704631463A4663460A
:10028000BDE8F08140EA01039B0703D009E008C9FB
:10029000121F08C0042AFAD203E011F8013B00F84B
:1002A000013B521EF9D27047D2B201E000F8012B97
:1002B000491EFBD270470022F6E710B513460A46E6
:1002C00004461946FFF7F0FF204610BD30B505463D
:1002D0002A460B4612F8010B13F8014B08B1A04255
:1002E000F8D01CB1002802D06D1CF1E7284630BDC3
:1002F00010B5044604E00B7800F8013B03B1491C3B
:10030000521EF8D2204610BD421C10F8011B0029D5
:10031000FBD1801A704730B504460020034600E048
:100320005B1C934203D2E05CCD5C401BF8D030BD37
:1003300030B505460020034600E05B1C934205D221
:10034000EC5CC85C201A01D1002CF6D130BD70B530
:1003500006460CF033F8046805460A2200213046B0
:1003600000F080FA2C6070BD2DE9FE4F804681EAD6
:100370000300C00F0C46009021F0004123F000451F
:10038000B8EB0200A94105D24046214690461C46E2
:100390000B46024623F00040104347D0270DC7F319
:1003A0000A00C3F30A510290401A019040286BDA08
:1003B000C3F3130040F4801B0098924620B1002341
:1003C000D2EB030A63EB0B0B01985946C0F14002D4
:1003D000504600F0C2F906460D4650465946019A6D
:1003E00000F0DAF910EB08006141002487EA1152AD
:1003F00084EAE7731A4340D0009A62B3019A012A53
:100400004FEA075215DC001B61EB02014FF000427E
:1004100002EA0752CDE90042001C41F58011324644
:100420002B4600F09DFA03B0BDE8F08F4046214610
:10043000F9E7001B61EB0201001C41F58013001875
:100440005B412018A2F5001747EB030140EAD57085
:10045000B6196D4111E06D084FEA360645EAC075E0
:100460004FEA0752001B61EB0201001C41F58011AD
:1004700049084FEA30000019514132462B4603B07B
:10048000BDE8F04F00F05DBA009801224000002363
:10049000D0EB020263EBE073009821464FEAE07470
:1004A000B8EB000061EB0401E9E783F000435BE790
:1004B00081F0004158E72DE9FE4F81EA030404F082
:1004C000004421F0004100944FF0000B23F0004362
:1004D00050EA01045ED052EA03045BD0C3F30A542D
:1004E000C1F30A552C44A4F2F3340194A0FB025446
:1004F000C1F3130141F48011C3F3130343F48013D8
:1005000001FB024400FB034E840A970A44EA81542B
:1005100047EA8357A4FB076802958D0A05FB078508
:100520004FEA932C04FB0C542705029D4FEA065812
:1005300047EA1637B5EB08056EEB070C870E920EEF
:1005400047EA811742EA8312A7FB0201B6EB0B01CF
:1005500064EB00042B0D43EA0C335E1844EB1C5093
:10056000DA465146E7FB0201C5F313044FEA0B33A9
:1005700043EA14534FEA0432019C43EA0603A4F110
:100580000C040294009CCDE900B400F0E9F903B03A
:10059000BDE8F08F00200146F9E72DE9F04D81EA32
:1005A000030404F0004B21F0004514464FF0000A0C
:1005B00023F0004150EA050220D054EA01021DD088
:1005C000C5F30A570246C5F31303C1F31300C1F381
:1005D0000A5640F4801543F48013A7EB0608101B5D
:1005E000D64608F2FD3873EB050002D308F1010886
:1005F00001E092185B41B8F1000F03DA00200146D8
:10060000BDE8F08D00204FF48011064684460EE0D0
:10061000171B73EB050705D3121B63EB050306439A
:100620004CEA010C49084FEA300092185B4150EA4D
:100630000107EDD152EA030012D082EA040083EAF6
:100640000501084305D0101BAB4106D2012200234F
:1006500006E000224FF0004302E06FF00102531069
:100660001AEB06004CEB085110EB0A0041EB0B01B2
:10067000BDE8F04D00F065B930B5041E71F100041D
:1006800004DB4FF00044404264EB0101141E73F19F
:10069000000405DB1C464FF00043524263EB0403A9
:1006A000801A994101D2012030BD002030BD0EB525
:1006B000C10F80EAE0700844CA07002140F23343CA
:1006C0008DE80E000A460B4600F04AF903B000BD63
:1006D00000F0004230F000400AD0C10D01F5607119
:1006E000C0F3160042EA0151C208400711437047A7
:1006F00000200146704701F0004330B421F0004172
:1007000050EA010206D00A0DA2F56072C1F313018E
:10071000002A02DC30BC00207047440F44EAC104C8
:10072000C100E01830BC00EBC25000F0D3B830B5C7
:100730000B46014600202022012409E021FA02F59F
:100740009D4205D303FA02F5491B04FA02F5284439
:10075000151EA2F10102F1DC30BD202A04DB203A93
:1007600000FA02F1002070479140C2F1200320FA04
:1007700003F3194390407047202A04DB203A21FA02
:1007800002F00021704721FA02F3D040C2F12002AA
:100790009140084319467047202A06DBCB17203AC0
:1007A00041FA02F043EAE07306E041FA02F3D04076
:1007B000C2F1200291400843194670470FB40B0064
:1007C00010B58AB00FA900910E994FF00004234A8A
:1007D000CC60214CCDE9064200D004236FF00042EA
:1007E000CDE901321E4A089202466B46002000F015
:1007F00001FA0AB010BC5DF814FBF0B585B00746ED
:100800004FF0FF300091CDE901011E460020154652
:100810000C4604903B466A46314604A8FFF7CEFFDB
:1008200004990346601825B109B1024600E022464A
:100830002A6000290ED0002B02DD0099814209D0E8
:100840000094001BCDE901043B466A46314604A8EA
:10085000FFF7B4FF05B0F0BD2D0E00084B0E0008E9
:10086000B90A00082DE9F04791460F468046044634
:10087000002614F8015B2DB100F01AF90068405D04
:10088000C007F6D12B2D02D02D2D18D0641E4A465C
:100890003946204600F0EAFA27B13968A14201D171
:1008A000C7F8008071054FF002040BD540420028C4
:1008B00003DD0BF083FD0460A007BDE8F08746F47C
:1008C0008066E4E70028F8DA0BF078FD04606FF04A
:1008D0000040F2E70029A8BF7047401C490008BF4C
:1008E00020F00100704710B4B0FA80FC00FA0CF060
:1008F00050EA010404BF10BC704749B1CCF1200498
:1009000021FA04F411FA0CF118BF01212143084324
:10091000A3EB0C01CB1D4FEA00614FEA102042BF50
:10092000002010BC704700EBC35010440029A4BF46
:1009300010BC7047401C490008BF20F0010010BCEB
:10094000704710B5141E73F1000408DA401C41F121
:10095000000192185B411A4301D120F0010010BD43
:100960002DE9F04D92469B4611B1B1FA81F202E0B9
:10097000B0FA80F220329046FFF7EFFE04460F46B1
:1009800040EA0A0041EA0B0153465A46084313D095
:10099000114653EA010019D0C8F140025046FFF752
:1009A000EBFE05460E46504659464246FFF7D5FE39
:1009B000084305D0012004E020463946BDE8F08D0B
:1009C0000020054346EAE0762C4337430A98630546
:1009D000E40AA0EB08000022FD0A44EA47540A306A
:1009E00002D500200146E9E7010510196941DDE95A
:1009F000084500196941BDE8F04DA2E7C1F30A526C
:100A0000C1F3130140F2FF3341F480119A4202DA3C
:100A100000200146704740F233439A42A2F233422B
:100A200002DC5242FFF7A8BEFFF797BE30B5041EA6
:100A300071F1000404DB4FF00044404264EB01011B
:100A4000141E73F1000405DB1C464FF000435242B4
:100A500063EB04038B4208BF824230BD30B5041EF5
:100A600071F1000404DB4FF00044404264EB0101EB
:100A7000141E73F1000405DB1C464FF00043524284
:100A800063EB0403994208BF904230BD064C074D0A
:100A900006E0E06840F0010394E80700984710344E
:100AA000AC42F6D3FFF774FBF84E0108184F01086B
:100AB0000048704774E2000810B50446FFF7F8FFDD
:100AC0000068005D00F0010010BD00002DE9FF4F3F
:100AD000087883B09946FF2805D0491C2D2804D0FA
:100AE0000024002008E000200BE00124F9E700EBDF
:100AF000800003EB4000491C0B78FF2BF7D104B1B9
:100B0000404200230293147819461D462D2C01D033
:100B10002B2C04D1521C2D2C13D000240294AA4655
:100B20001478FF2C0FD00A25A3FB057801FB058163
:100B30004FF0000C03FB0C11521CE3194AEB0101AE
:100B4000EEE70124EAE7814453EA010002D019F5F7
:100B5000C87F06DA03980021C0E9001107B0BDE89C
:100B6000F08F0025AE4E2F46DFF8B882184600F011
:100B700057FACDE90001B9F1000002DAC9F1000429
:100B800000E004460023A74A1AEB030B42EB045A89
:100B900012E0E00707D02A46334638464146FFF7C1
:100BA0008AFC074688462A46334610461946FFF710
:100BB00082FC05460E466410002CEAD1DDE90001F6
:100BC000B9F1000F5A46534606DAFFF7E6FC3A46FB
:100BD0004346FFF7E2FC05E0FFF76DFC3A4643466B
:100BE000FFF769FC029A0AB181F00041039AC2E959
:100BF0000001B3E72DE9FF4F1F468DB0D7E901464D
:100C00004FF0FF382E2045464FF000090B90B96990
:100C10006D1C0E988847396A824688470028F6D1AD
:100C2000BAF1FF3F0AD024F4D064002E11DDBAF1EE
:100C30002B0F08D0BAF12D0F0BD102E0404611B0B6
:100C40008DE744F48064B9696D1C0E98884782462C
:100C5000761E6946600501D52D2000E02B208DF819
:100C6000000001F1010B0DF1200809E0B9696D1CCC
:100C70000E98884782460F9844F40074761E0560EB
:100C8000002E02DDBAF1300FF0D00B998A453ED12B
:100C900044F0800406E00F99681CA9F1010944F4AE
:100CA00000740860B9696D1C761E0E9888478246EC
:100CB0003028F0D02BE00B998A4505D1200603D4CB
:100CC00044F08004761E18E050460CF077FD08B31F
:100CD0000DF11302761EAAF1300044F4007493451E
:100CE00006D20BF8010B200607D5A9F1010003E09D
:100CF000200602D409F101008146A00502D50F9912
:100D0000681C0860B9696D1C0E9888478246002EE1
:100D1000D1DC53E0002E51DDBAF1650F02D0BAF1FB
:100D2000450F4BD1A00549D5B9696D1C24F4407419
:100D3000761E0E9888478246002E0CDD2B2804D0A4
:100D4000BAF12D0F07D144F48074B9696D1C0E9867
:100D500088478246761EE00501D52D2100E02B2133
:100D600008F8011BCDF82C8021E00DF12901761E39
:100D700044F4007488450CD2AAF1300010F0FF0052
:100D800088F8000002D10B99884509D908F10108BB
:100D900006E0E00501D5244801E042F20F708146EB
:100DA000B9696D1C0E98884782460F980560002E21
:100DB00004DD50460CF002FD0028D6D1F9690E98EA
:100DC0008847FF208BF8000088F80000002006907C
:100DD00007904B466A4608A906A8FFF777FEA005CC
:100DE00002D46FF001002AE714F0240F0AD0E007C4
:100DF00014D1DDE906123868031D3B600068C0E9C4
:100E000000120BE0DDE90601FFF775FC0146E00783
:100E100004D13868021D3A600068016028460EE778
:100E2000000014400000F03FF1D8FFFF426842B1DB
:100E3000016811F8013B23B1521EC0E900121846A7
:100E400070470121C160881E704742685AB1C3686B
:100E5000016843B983688B4205D0491E521CC0E922
:100E60000012002070474FF0FF3070472DE9F05F0F
:100E700082460078002715468B460AF10104B946E0
:100E8000302801D09DB113E014F8010B0127782818
:100E900003D0582801D045B10AE00DB1102D07D17B
:100EA0000027102514F8010B02E0082500E00A25B0
:100EB0000026B0460EE005FB080005FB06F1012701
:100EC00001EB10461FFA80F8B6F5803F00D3B94613
:100ED00014F8010B294600F095F80028EBDABBF175
:100EE000000F05D00FB1641E00E05446CBF800405F
:100EF000B9F1000F06D00BF061FA02210160C81EA3
:100F0000BDE8F09F48EA0640FAE72DE9F04D0023DE
:100F10001A461B1A8A4103DB00200146BDE8F08D0A
:100F2000C1F30A52C1F3130141F480154FF0000BD5
:100F3000D10702D100186D41521E0027044640F22D
:100F4000FF11384601EB620A3E4680460246002009
:100F50004FF48011FFF710FCC2197141BB1846EB2A
:100F60000100B4EB030C75EB000C04D3E41A65EB41
:100F7000000517460E46241908F101006D41804610
:100F80003428E3DDF91946EB0600091BA84103D21A
:100F90004FF0FF32134601E0002213461BEB07001F
:100FA00046EB0A51BDE8F04DFFF7CBBC0EB540F261
:100FB000334102910021CDE900110A460B46FFF7AB
:100FC000CFFC03B000BD70B5C1F30A5201F000457B
:100FD0000024C1F3130140F2FF3341F480119A421F
:100FE00001DA002070BD40F233439A42A2F233424C
:100FF00003DC5242FFF7C0FB00E090402C43F1D0ED
:10100000404270BD3A2800D2303820F02002412AF8
:1010100001D3A2F13700884201D34FF0FF3070476F
:101020000EB540F2334202920022CDE9002213466F
:10103000FFF796FC03B000BD70B542F25844C2F20F
:101040000004054620460E4602F00EFE701E0628DD
:1010500088BF70BD0DA030F8160044F24021C0F2E8
:101060000F01B1FBF0F02168C862E06040084863FE
:1010700009F08CF941F2B4412844C2F20001086041
:101080002046002103F062F870BD00BFEE010B02A4
:101090004C029402BA0210037003DC0310B541F253
:1010A000B444C2F20004206870B109F06FF92168FD
:1010B000884238BF10BD0020206042F25840C2F282
:1010C0000000002103F0BEF810BD0000FEE70000A4
:1010D00041EA00207047000080B542F24030C2F281
:1010E000000001F0BFFD80BD80B542F2A030C2F229
:1010F000000001F0B7FD80BD80B542F2E020C2F2F1
:10110000000001F0AFFD80BDD0F800C06FF00F020D
:101110004AF6AB2352FA8CF2CAF6AA230146A2FB86
:101120000330000905A31B5C40F2FF302CEA0000ED
:101130005F2A88BF0430C1E9160370470006101605
:10114000000610168269816AB2F5005F06D06AB99E
:10115000022912D0012914D0D1B90EE0032917D8E1
:10116000DFE801F0020B020F0120704703293CBFAA
:10117000012070471CBF00207047C06AC0F30060A8
:101180007047C06AA0F1C070B0FA80F040097047A3
:101190000020704780B5D0F800C0D0F808E0DCF837
:1011A0000000BEF1400F20F48020CCF8000008467B
:1011B000CCF8043004BF10460A46CCF80800CCF83E
:1011C0000C2080BD70B514460D46064604F0B6FCF2
:1011D000CC2000F061F84E2000F05EF8204600F0D0
:1011E0005BF8284600F058F8304600F055F804F057
:1011F000A5FCCC2000F050F8482000F04DF841F25A
:101200000004C4F2020400BF2046012101F06AFF7D
:101210000028F9D070BD000070B541F20004C4F29E
:10122000020420460121012201F062FF052007F09F
:10123000F1F80825204601210022C6F3460601F0F8
:1012400057FF052007F0E6F820460121012201F0B2
:101250004FFF052007F0DEF82046012101F042FF94
:1012600000284FF0410018BF66F07F0607F0D2F863
:1012700020460121012201F03BFF013D2806D9D182
:10128000F0B270BD80B504F059FCCC2000F004F839
:10129000442000F001F880BDF0B581B041F20004B7
:1012A00005460826C4F2020420460121002201F06E
:1012B0001FFF052007F0AEF805F0010220460121CE
:1012C000EFB201F015FF412007F0A4F820460121FC
:1012D000012201F00DFF022007F09CF8013E3006CC
:1012E0004FEA5705E0D101B0F0BD000080B586B0EF
:1012F00000200590CDE90300CDE90100009043F600
:101300003000C4F20200016841F010010160006881
:1013100001A900F01000009000980120CDE9010023
:1013200041F20000C4F2020001F010FE06B080BDE0
:101330004EF6FC50CEF20000016841F08071016071
:1013400041F20000CEF20000016841F001010160AD
:1013500000214160704700007047000070B50446EE
:101360004D1E00202A1A215CB2FA82F2461C520954
:10137000C0B206F0BBFE012008F0F8FF042E304694
:10138000F0D170BD2DE9F04381B00646147803F02A
:1013900007000D46089F40F268099046C2F2000916
:1013A000DFE800F004132231404F5E6D99F81C0015
:1013B00061B2421E18BF0122002948BF0246B0B2E6
:1013C000A9B204F0ABFE013F6CD099F81C00731C6D
:1013D000421E18BF0122610648BF0246A9B298B258
:1013E00004F09CFE013F5DD099F81C00B31C421E26
:1013F00018BF0122A10648BF0246A9B298B204F064
:101400008DFE013F4ED099F81C00F31C421E18BF00
:101410000122E10648BF0246A9B298B204F07EFE5E
:10142000013F3FD099F81C00331D421E18BF012216
:10143000210748BF0246A9B298B204F06FFE013FEF
:1014400030D099F81C00731D421E18BF012261079D
:1014500048BF0246A9B298B204F060FE013F21D015
:1014600099F81C00B31D421E18BF0122A10748BFF6
:101470000246A9B298B204F051FE013F12D099F889
:101480001C00F31D421E18BF0122E10718BF0246CF
:10149000A9B298B204F042FE013F03D018F8014F00
:1014A000083683E701B0BDE8F0830000B0B586B030
:1014B00001F0FAF940F2E410C0F6010001F04AFB35
:1014C000002001F03DFB44F62540C0F6010000215C
:1014D000002201F087FA012001F032FB44F61C40A3
:1014E000C0F6010000210D2201F07CFA44F609400B
:1014F000C0F6010000211A2201F074FA44F60040FF
:10150000C0F601000021272201F06CFA44F62E40BB
:10151000C0F601000021342201F064FA34200021D9
:10152000802201F087FA30200021342201F0A0FA55
:1015300042F2BD50C2F200000078022836D00128E5
:1015400058D0002840F03E81C2A03221002201F094
:1015500049FAC3A032211A2201F044FA43F640307E
:10156000C2F200000068FFF7B3F801AC02460B4678
:10157000BEA120460AF0F6FE20465A210D2201F0B7
:1015800031FA42F2BC50C2F20000017844F6444203
:1015900044F61240C0F60102C0F60100002908BF5F
:1015A00010465A21272201F01DFA0BE142F2D825FC
:1015B000C2F20005B5F9002001AC9AA120460AF05C
:1015C000D1FE20463221002201F00CFAB5F90010BC
:1015D000B5F90000012931DB37214843C11700EB81
:1015E0005140462101EBE03246200D21102301F04D
:1015F00043FA27E041F2AC45C2F20005B5F90020FC
:1016000001AC8EA120460AF0ADFE20463221002218
:1016100001F0E8F9B5F90010B5F90000012935DB52
:1016200037214843C11700EB5140462101EBE0321E
:1016300046200D21102301F01FFA2BE0B0F1FF3FEF
:1016400040F3C48042F2DA25C2F20005B5F9002069
:1016500001AC76A120460AF085FE204632211122F7
:1016600001F0C0F9B5F90010B5F90000012935DB2A
:1016700037214843C11700EB5140462101EBE032CE
:1016800046201E21212301F0F7F92BE0B0F1FF3FA6
:1016900040F3A78041F2AE45C2F20005B5F9002043
:1016A00001AC68A120460AF05DFE204632211122DD
:1016B00001F098F9B5F90010B5F90000012935DB02
:1016C00037214843C11700EB5140462101EBE0327E
:1016D00046201E21212301F0CFF92AE0B0F1FF3F7F
:1016E00040F38A8042F2DC25C2F20005B5F9002001
:1016F00001AC50A120460AF035FE204632212222BC
:1017000001F070F9B5F90010B5F90000012934DBDA
:1017100037214843C11700EB5140462101EBE0322D
:1017200046202F21322301F0A7F94BE0B0F1FF3F13
:101730006DDD41F2B045C2F20005B5F9002001AC03
:1017400042A120460AF00EFE20463221222201F05C
:1017500049F9B5F90010B5F90000012920DB37215E
:101760004843C11700EB5140462101EBE0324620CF
:101770002F21322301F080F924E0B0F1FF3F21DC7A
:10178000B5F9000037214843C11700EB514046210D
:10179000A1EBE03246202F21322301F06DF911E058
:1017A000B0F1FF3F0EDCB5F9000037214843C11707
:1017B00000EB51404621A1EBE03246202F2132239D
:1017C00001F05AF901F0DCF906B0B0BDB5F900003E
:1017D00037214843C11700EB51404621A1EBE032CD
:1017E00002E7B5F9000037214843C11700EB51402B
:1017F0004621A1EBE0321BE7B5F900003721484351
:10180000C11700EB51404621A1EBE03238E7B5F9B2
:10181000000037214843C11700EB51404621A1EB9E
:10182000E03255E767783A253664000067793A2553
:1018300036640000677A3A253664000061783A25FC
:101840003664000061793A2536640000617A3A25F1
:1018500036640000B5B1C7B0CEC2B6C83A000000C9
:10186000D5F0B6AFB1A8BEAF3A000000252E316664
:10187000A1E60000B0B52DED088B88B001F014F89A
:1018800040F2E410C0F6010001F064F944F625408E
:10189000C0F601000021002201F0A4F8002001F0B0
:1018A0004FF944F61C40C0F6010000210D2201F062
:1018B00099F8012001F044F944F60940C0F601000E
:1018C00000211A2201F08EF844F60040C0F6010013
:1018D0000021272201F086F844F62E40C0F60100D0
:1018E0000021342201F07EF834200021802201F012
:1018F000A1F830200021342201F0BAF842F27E2013
:10190000C2F2000000780138032824D8DFE800F094
:10191000024363A542F28410C2F200000068FEF7A1
:10192000D7FE02460B4667A10DF102000AF01AFD30
:1019300042F2E0150024C2F2000500BF2A19295D19
:10194000537804F1330004F1340201F07BF80134E0
:101950004C2CF3D198E042F28010C2F200000068F3
:10196000FEF7B6FE02460B465AA10DF102000AF040
:10197000F9FC42F290150024C2F200052A19295DF3
:10198000537804F1330004F1340201F05BF80134C0
:101990004C2CF3D178E042F28810C2F200000068CB
:1019A000FEF796FE02460B4642A10DF102000AF038
:1019B000D9FC42F230250024C2F200052A19295D23
:1019C000537804F1330004F1340201F03BF80134A0
:1019D0004C2CF3D158E043F64030C2F200000068CE
:1019E000FEF776FE02460B462DA10DF102000AF02D
:1019F000B9FC42F284250024C2F200052A19295DAF
:101A0000537804F1330004F1340201F01BF801347F
:101A10004C2CF3D140F250059FED248A9FED249A7F
:101A20003324C2F20005B2EE04AAB2EE08BA00BF37
:101A300095ED000A204638EE400A20EE090A80EEB5
:101A40000A0A30EE0B0ABDEEC00A10EE101A01F0C1
:101A50000BF802347F2CEBD116E042F28410C2F274
:101A6000000090ED000A42F28010C2F20000D0EDBA
:101A7000000A42F28810C2F2000090ED001A012024
:101A800058211C2203F076FF0DF1020033210022C1
:101A900000F0A8FF01F074F808B0BDEC088BB0BDF1
:101AA000CEC2B6C8A3BA252E3166000000000C4293
:101AB00000002042BABDCFF2BDC7A3BA252E3166C1
:101AC00000000000B8A9D1F6BDC7A3BA252E316623
:101AD00000000000BAE1B9F6BDC7A3BA252E3166F1
:101AE00000000000B0B588B000F0DEFE40F2E41067
:101AF000C0F6010001F02EF844F62540C0F60100C2
:101B00000021002200F06EFF44F61C40C0F60100E8
:101B100000210D2200F066FF002001F011F844F6CC
:101B20000940C0F6010000211A2200F05BFF0120ED
:101B300001F006F844F60040C0F60100002127221B
:101B400000F050FF44F62E40C0F601000021342280
:101B500000F048FF41F2CC45C2F2000505F54560B2
:101B60003221002200F03EFF44F6B630C0F60100FC
:101B700032210C2200F036FF0DF102041EA1204696
:101B800041F2E1020AF0EEFB20463221182200F079
:101B900029FF95F8B21C44F6C73244F6C430C0F6AB
:101BA0000102C0F60100002908BF1046322124229C
:101BB00000F018FF42F28C10C2F20000017844F6E7
:101BC000F93244F61540C0F60102C0F601000029C2
:101BD00008BF10465021242200F004FF34200021C9
:101BE000802200F027FF30200021342200F040FF47
:101BF00000F0C6FF08B0B0BDB6CBBFDAA3BA25640B
:101C000000000000B0B586B000F04EFE40F2E410D7
:101C1000C0F6010000F09EFF44F62540C0F601002A
:101C20000021002200F0DEFE44F61C40C0F6010058
:101C300000210D2200F0D6FE44F60940C0F6010056
:101C400000211A2200F0CEFE002000F079FF44F6B9
:101C50000040C0F601000021272200F0C3FE012051
:101C600000F06EFF44F62E40C0F601000021342241
:101C700000F0B8FE34200021802200F0DBFE30208E
:101C80000021342200F0F4FE45A03221002200F0B1
:101C9000A9FE46A032210D2200F0A4FE46A032216A
:101CA0001A2200F09FFE47A03221272200F09AFE60
:101CB00040F25000C2F200000068FEF709FD024643
:101CC0000B4643A101A80AF04DFB42F28025C2F267
:101CD0000005287810B9002000F032FF01AC204642
:101CE0006821002200F07EFE012000F029FF42F270
:101CF0007F20C2F20000027837A120460AF032FBB2
:101D00002878012802D1002000F01AFF01AC2046FB
:101D100074210D2200F066FE012000F011FF40F258
:101D20001000C2F2000002782CA120460AF01AFB33
:101D30002878022802D1002000F002FF01AC2046E2
:101D400068211A2200F04EFE012000F0F9FE40F258
:101D50000E00C2F2000000889FED211A00EE100A6A
:101D6000B8EE400A80EE010A10EE100AFEF7B0FC51
:101D700002460B461BA120460AF0F4FA28780328F5
:101D800002D1002000F0DCFE01A86821272200F02B
:101D900029FE012000F0D4FE00F0F2FE06B0B0BD36
:101DA000CEC2B6C8C9CFCFDE3A000000D5F0B6AF7C
:101DB000C1E9C3F4B6C83A00B1A8BEAFCAB1B3A472
:101DC0003A000000C9CFB4ABBCE4B8F43A0000005C
:101DD000252E3066A1E6000025640000256453002E
:101DE00000007A44252E316653000000B0B500F0A3
:101DF0005BFD42F2B454C2F20004256808F0C6FA52
:101E0000A5B1216801F5FA61884211D908F0BEFA3E
:101E1000216801F57A61884218D908F0B7FA21687B
:101E200041F288321144884220D900202060B0BDA0
:101E300040F2C410C0F6010000F08CFE16A0402154
:101E40000C2200F0D9FD00F09BFEB0BD00F02CFD8F
:101E500040F2A410C0F6010000F07CFE15A00021A5
:101E6000002200F0BFFD00F08BFEB0BD00F01CFDB5
:101E700043F63870C0F601000021002200F0D6FDC4
:101E800043F62870C0F601004021002200F0CEFD8C
:101E900000F076FEB0BD00BFB7C0BBF0A1A2B7C0D6
:101EA000B5C1D4B60AB3CCBCE0B2E2C6F7C9E8BC4F
:101EB000C6000000B3C9D4B131A3BAC0EEB3D0BAE2
:101EC000B20A20202020202020313830343138310F
:101ED000370AB3C9D4B132A3BAB7EBF4D3D6AE2024
:101EE0000A2020202020202031383034313831326F
:101EF0000000000070B582B0044600680168C906A1
:101F00000CD500210191016801914168019101996D
:101F100041F20041C4F20101884201D002B070BD1B
:101F2000204602F0E1F942F2A030C2F2000000685F
:101F300040F2FF32416843F23C30C1F58065511AEE
:101F400040F2FD32C2F200009142056007D8012D37
:101F500008D143F24071C2F20001097811B90021A1
:101F600001600DE042F63C76C2F2000643F2407199
:101F7000C2F2000130462A46FEF784F9002070556F
:101F8000002043F2407184F83C00C2F20001204678
:101F90004FF4806202F008FC02B070BD2DE9F043FE
:101FA00081B0002846D01E46904607460D46FEF7F3
:101FB000ABF90446013840F2FE3188423AD841F28A
:101FC000CC49C2F20009484639462246FEF75AF982
:101FD0000027012E09F80470C9F89C4CC9F8A07CB0
:101FE000C9F8988C4FF0010498BF264689F8AC6C6C
:101FF000A5B12846FEF788F9044609F58066304603
:1020000029462246FEF73EF93755C9F8A84C89F80B
:10201000B37C89F8B17C01B0BDE8F08309F580603C
:102020004FF48061FEF747F9C9F8987CC9F8A87C9D
:1020300089F8B14C01B0BDE8F083000070B5A2B0E2
:102040000C46054600F078FB02AE11A23046802116
:102050002B4600940AF06CF944F6C431C0F6010135
:1020600030464FF4FA720323FFF798FF00F064FB49
:1020700041F2CC40C2F2000090F8B11C002918BF18
:10208000012180F8B21C90F8B10C22B070BD00BFE5
:1020900041542B43495053544152543D22544350D0
:1020A000222C222573222C25640D0A0010B500F085
:1020B00043FB44F6C4310CA0C0F601014FF47A7220
:1020C0000323FFF76BFF00F037FB41F2CC44C2F271
:1020D000000404F5406104F6284206A00AF018F94D
:1020E00094F8B10C10BD00BF41542B4349465352E4
:1020F0000D0A00004553502061705F616464723ABC
:1021000025730A45535020737461745F616464726F
:102110003A25730A0000000080B500F00DFB44F67C
:10212000C43108A0C0F601014FF4FA720323FFF78F
:1021300035FF00F001FB41F2CC40C2F2000090F804
:10214000B10C80BD41542B43575341503F0D0A0001
:10215000B0B541F2CC4442F27050C2F20004C2F277
:102160000000C4F88C0C0025012084F8AF5C84F8D2
:10217000B05C84F8B15C84F8AC5C84F8B25C84F840
:10218000B30C42F63C70C2F2000084F8AE5CC4F8B6
:10219000985CC4F8A45CC4F8900C43F23C30C2F2E2
:1021A0000000C4F8940C04F500604FF48061FEF761
:1021B00082F820464FF48061C4F8A45CFEF77BF8F7
:1021C00004F580604FF48061C4F89C5CC4F8A05CA6
:1021D000FEF771F8C4F8A85C04F0C2FFB0BD0000BF
:1021E00080B500F0A9FA44F6C4310AA0C0F6010196
:1021F0004FF4FA720323FFF7D1FE00F09DFA41F28B
:10220000CC40C2F2000090F8B11C80F8B01C90F8ED
:10221000B00C80BD41540D0A0000000070B5A2B0A2
:102220000C46054600F088FA02AE0DA23046802129
:102230002B4600940AF07CF844F6C431C0F6010144
:1022400030464FF4FA520223FFF7A8FE00F074FA6A
:1022500041F2CC40C2F2000090F8B10C22B070BD47
:1022600041542B43574A41503D222573222C2225AD
:1022700073220D0A000000002DE9F04F81B041F2F9
:10228000CC44C2F2000494F8AF0C40B3D4F8940CE0
:10229000006808B3D4F8940C04F5006A0068C4F828
:1022A000A40CD4F8A40CB0F5806F24BF40F2FF302A
:1022B000C4F8A40CD4F8901CD4F8A42C5046FDF714
:1022C000E1FFD4F8A40C00210AF80010D4F8940C13
:1022D000016094F8AF0C38B301B0BDE8F08F94F80A
:1022E000AC0C0028D2D008F051F8D4F8A01CD4F8D7
:1022F000982C11448842C9D308F048F8C4F8A00CBF
:1023000077A021460AF004F8D4F88C0CD4F89C1C71
:102310004FF6FF738AB2214602F066FA94F8AC0CCD
:10232000013884F8AC0CB1E7D4F8A80C0028D3D05D
:1023300094F800080028CFD004F580650FF2AC189F
:102340006EA704F5456604F5406B00BF2846FDF70F
:10235000DBFF024650462946FDF7EAFF38B9002068
:1023600084F8AC0C012084F8B10C84F8B30C50460E
:102370004146FDF7ABFF0AF1020948450CD0504633
:102380005CA1FDF7A3FF48450BD194F8B20C40B116
:1023900094F8B20C013802E094F8B20C013084F8E1
:1023A000B20C504639460722FDF7C2FF00B3504633
:1023B00054A10B22FDF7BCFF70B3504654A1FDF7AA
:1023C00085FF504546D2504655A1FDF77FFF504549
:1023D00052D30E30002100BF425C222A18BF002ACF
:1023E0006DD0631801310F2983F8282CF4D143E014
:1023F0000AF1080130462822FDF77AFF01E000BF0C
:1024000001300178002918BF2229F9D1002101707B
:10241000DA4533D35AE000BF0AF10C0A002100204C
:1024200009E000BF0130214481F8782CC1B21129A4
:102430000AF1010A20D29AF800203A2AF6D0222A7C
:1024400001D0002AEED16018002180F8781CDA450E
:1024500014D33BE00D300021425C222A18BF002A31
:1024600006D0631801310F2983F8002CF4D103E062
:102470006018002180F8001CDA4527D2504600BFC2
:102480000178D1B10D2906D00A2904D00130834545
:102490008246F5D11AE000F1010ADA4516D200BFF2
:1024A00041780D2918BF0A2904D1013004F6FF3103
:1024B0008142F5D100F1010A08E0824606E0601889
:1024C000002180F8281CDA45D8D300BFDA45BFF4D4
:1024D00003AF9AF8000000287FF438AFFCE600BF95
:1024E000455350202D2D3E2025730000434F4E4E66
:1024F00045435400434C4F53454400002B4357532E
:1025000041503A002B4349505354414D41433A0006
:102510002B43494653523A415049502C0000000089
:102520002B43494653523A53544149502C00000022
:1025300070B5A0B0044600F0FFF841F2CC46C2F2FC
:1025400000062CB344F6BD626D46C0F60102284673
:102550008021234609F0ECFE44F6C434C0F60104A1
:10256000284621464FF4FA720323FFF717FD00F0C7
:10257000E3F81CA021464FF4FA720323FFF70EFD87
:1025800096F8B10C00281CBF012086F8AF0C22E0A1
:10259000002044F6464186F8AF0C16A0C0F60101B3
:1025A0004FF47A720123FFF7F9FC00F0C5F844F606
:1025B000BD626C46C0F6010220468021002309F06E
:1025C000B7FE44F6C431C0F6010120464FF4FA725A
:1025D0000323FFF7E3FC00F0AFF896F8B10C20B04E
:1025E00070BD00BF41542B43495053454E440D0A22
:1025F000000000002B2B2B00B0B5A0B0044600F06B
:102600009BF86D460CA228468021234609F090FED7
:1026100044F6C431C0F6010128464FF4FA72032390
:10262000FFF7BCFC00F088F841F2CC40C2F2000099
:1026300090F8B10C20B0B0BD41542B4349504D55DA
:10264000583D25640D0A0000B0B5A0B0044600F066
:1026500073F86D460FA228468021234609F068FED4
:1026600044F6C431C0F6010128464FF4FA72032340
:10267000FFF794FC00F060F841F2CC40C2F2000099
:1026800090F8B11C002918BF80F8AD4C90F8B10C3F
:1026900020B0B0BD41542B43574D4F44453D2564B8
:1026A0000D0A000070B5A2B00D46044600F044F8D3
:1026B00094B102AE15A2304680212346009509F060
:1026C00037FE44F6C431C0F6010130464FF4FA72C9
:1026D0000323FFF763FC09E044F6C43111A0C0F600
:1026E00001014FF4FA720323FFF758FC00F024F8BD
:1026F00041F2CC40C2F20000002C18BF012480F847
:10270000AE4C90F8B10C22B070BD00BF41542B43C9
:1027100049505345525645523D25642C25640D0AB7
:102720000000000041542B43495053455256455236
:102730003D300D0A0000000010B541F2CC44C2F259
:10274000000400BF94F8AC0C40B194F8AF0C002822
:1027500018BF10BD642007F009FEF3E710BD0000AC
:102760007047000080B50D2808BF80BD0A2802D13F
:1027700000F0B4F880BD40F26801C2F200010969BE
:102780000968884780BD000010B582B09446028871
:102790004388B0F804E0846808466146CDF800E05C
:1027A000019402F05BFA02B010BD00002DE9F04385
:1027B00083B040F26808C2F20008D8F8105004460E
:1027C000A9690846214600F03DF8C0B30188466873
:1027D000671A06EBC70999F80240B8F91400B8F96E
:1027E000161016F837202B7DD9F80450CDE9004596
:1027F00002F034FAD8F81000027D417D914213D9DD
:10280000B8F81400B8F8163016F8377098F81C604D
:102810001A4407440B44013E91B2BAB29BB218BFAE
:102820000126009603F0B8FBD8F8100099F80110C3
:10283000807DB8F8142010FB0120A8F8140003B024
:10284000BDE8F08301E000BF806838B102888A42A9
:10285000FAD842888A4228BF7047F5E770470000DF
:10286000B0B540F26801C2F200010D690446A969E1
:1028700008462146FFF7E6FF38B101884068611A33
:1028800010F83100A97D4843B0BD0020B0BD000064
:10289000012008807047000080B58069FFF7D2FFF3
:1028A000002818BF012080BD80B50020002100F065
:1028B0001FF9002000218022402300F001F880BD94
:1028C00080B582B04FF0000C80B289B292B29BB258
:1028D000CDF800C003F060FB02B080BD80B500F011
:1028E000E7F840F26801C2F20001CA8A1044C882C7
:1028F00080BD0000002808BF70472DE9F04F83B06D
:10290000074600F0D5F840F26806C2F20006B6F8B5
:1029100014A0834600F0D4F8F18A0090081AF082DF
:1029200011E000BF708B00F0030001380228504610
:1029300028BF0020B08238780A2808BFF48217F830
:10294000010B002841D0387800283ED0384647F6A1
:10295000FF7100F02BF905463846294600F022F9B0
:10296000718B01F00301012906D0022912BF002159
:1029700000EBD071491000E00146B28AB6F816901B
:10298000511A01EB0008A8F1010009EB0B04ADF8A6
:102990000800601EB182ADF80410ADF80A00384698
:1029A000294601AAADF8069000F0EEF8384629460F
:1029B000A6F8169000F0E2F8395C07440D29B1D072
:1029C0000A29AFD0A6F81480B9E7F08A0099084424
:1029D000718BF08221F00300708303B0BDE8F04FEB
:1029E0007047000080B540F26803C2F2000399828C
:1029F000DA82FFF77FFF80BDF0B581B00D4640F26F
:102A00006801C2F20001B1F91A10064641F0020055
:102A1000144600F0A9F80746304629462246FFF73B
:102A2000E1FF384600F0A0F801B0F0BD80B5FFF737
:102A3000ABFE80BD80B503460846194602F058F942
:102A400080BD000080B582B040F2680CC2F2000C7C
:102A50009CF81CC080B289B292B29BB2CDF800C083
:102A600003F0C6FA02B080BD80B502F067F980BD00
:102A700080B502F07FF980BDF0B581B099420BDAE4
:102A80001C4615460E460746384631462A4602F091
:102A90002FF90136B442F7D101B0F0BD80B540F254
:102AA0006801C2F2000109694968884780BD0000D9
:102AB00040F26800C2F200000069407D70470000EB
:102AC00040F26800C2F20000418B01F00C010C29B9
:102AD00018BF082903D10069007D40087047042908
:102AE0001CBF002070470069007D0138704700005E
:102AF00010B50C4605F0CAFB204605F0CDFB0020C2
:102B000010BD000080B540F28800C2F200002E2106
:102B1000017040F268007F22C2F200000021C0F282
:102B20003F02C0E900124EF24C32C0F60002C0E98A
:102B3000042101214172017703F07CFB002080BD5C
:102B400040F26801C2F200010A7F824218BF087792
:102B50007047000040F26802C2F2000201461069AC
:102B6000002918BF1161704740F26803C2F20003E8
:102B7000B3F91A10024608465A8370470846704750
:102B800080B503F001FB80BD80B5126840F2680C8F
:102B9000130CC2F2000CACF81420ACF8163005F09F
:102BA0000FFB80BD80B505F02BFB80BD80B505F027
:102BB0004FFB80BD70B5866D044600F09FFA94F817
:102BC0003510022928D105462068216C026822F0C0
:102BD00016020260426922F08002426109B9A16CCA
:102BE00019B1016821F008010160016821F00101BB
:102BF000016000BF20680068C00714D000F07EFAB2
:102C0000401B0628F6D320206065002084F834009D
:102C1000032084F8350070BD80206065002084F8B2
:102C20003400012070BDE06D3F2101FA00F0B0607A
:102C30000020012184F8340084F8351070BD0000B4
:102C400090F83510022909D1052180F83510006867
:102C5000016821F001010160002070478021416579
:102C600001207047F0B581B004460020009040F28A
:102C70000800C2F200000268D4E9166048F2B513F9
:102C800037680821C1F64E3381403942A2FB032543
:102C90000CD0226813685B0708D5136823F004037F
:102CA0001360B160616D41F00101616501218140F6
:102CB000394208D022685269120604D5B160616DAC
:102CC00041F00201616504218140394208D0226847
:102CD0001268920704D5B160616D41F0040161652D
:102CE00010218140394215D020680268120711D5A1
:102CF000B16002680168520306D4C90506D40168B0
:102D000021F00801016001E0080342D4216C09B1FF
:102D100020468847E16D202000FA01F23A4244D073
:102D200020680368DB0640D5B26094F8353002684D
:102D3000052B1ED122F016020260426922F08002A9
:102D40004261226C0AB9A26C1AB1026822F0080230
:102D500002603F208840B060002084F834000120E9
:102D600084F83500216D002940D02046884701B005
:102D7000F0BD0168520310D4C90512D4016821F0D6
:102D800010010160002084F83400012084F835002F
:102D900007E0A16C0029BBD1BCE7080301D4616C3A
:102DA00000E0E16B09B120468847606DF0B1606DCD
:102DB000C00717D0052084F835002068A90A0268EA
:102DC00022F00102026000BF009A01328A420092A2
:102DD00002D80268D207F7D1002084F8340001201D
:102DE00084F83500E16C09B12046884701B0F0BD98
:102DF0002DE9F041044600F081F9C4B105460020F8
:102E000084F83400022084F835002068016821F03D
:102E10000101016026683068C0070BD000F06EF930
:102E2000401B0528F6D903212022032042E001207F
:102E3000BDE8F081306848F23F01CFF21001251D56
:102E400000EA010C2ECDD4E9050E41EA0C01114334
:102E500019432943D4E90778084340EA0E01606A20
:102E60003943042841EA080103D1D4E90B23114373
:102E7000194331607169042821F0070141EA000516
:102E80000CD1D4E90A1045EA010538B12046FEF715
:102E900059F918B10121402201200BE0204675614B
:102EA000FEF732F9E16D3F2202FA01F18160002262
:102EB00001210020626584F83510BDE8F081000032
:102EC000B0B5044690F83400012828D0012084F8D9
:102ED0003400A56D94F8350001281DD1022084F836
:102EE0003500002060652046FEF754F9E26D3F236F
:102EF000206803FA02F2216CAA60026842F016020E
:102F0000026019B1016841F008010160016841F0F7
:102F1000010101600020B0BD002084F834000220CF
:102F2000B0BD0000B0B5044600F0E8F8054640F238
:102F30005400C2F200000078611C18BF044400BFB6
:102F400000F0DCF8401BA042FAD3B0BD2DE9F04FF1
:102F500083B000F13E4202F1FF724FEAB22241F625
:102F600000470192C4F2020708224FF0010E00252B
:102F70004FF0000A4FF00008B84208BF0722009245
:102F80000AE000BF08F101080AF1040AB8F1100FC5
:102F900005F1020500F0A2800C680EFA08FB14EAA5
:102FA0000B09EFD04C6804F0030CACF1010EBEF13C
:102FB000010F12D882680323CE6803FA05F7BA43DB
:102FC00006FA05F73A4382604268C4F3001722EA22
:102FD0000B0207FA08F73A434260BCF1030F1CD01A
:102FE000C26803238E6803FA05F7BA4306FA05F7A9
:102FF0003A43BCF1020FC2600FD16FF0030202EA44
:10300000580202440AF01C060F23176A03FA06F45A
:103010000B69A743B3403B431362026803234F6825
:10302000AB409A4307F00303AB401A43FB004FF059
:10303000010E0260A6D5002243F644030292C4F2B8
:1030400002031A6843F6004442F480421A601A6888
:10305000C4F2010402F480420292029A28F00302B0
:103060004FF6084B2244CFF6FF7B52F80B300AF0A4
:103070000C070F26BE4023EA060C019B009E072B7F
:1030800038BF1E4606FA07F747EA0C0342F80B3032
:1030900022684B6842EA0907DE0358BF22EA0907A3
:1030A000276062689E0342EA090758BF22EA0907BF
:1030B0006760A268DE0242EA090758BF22EA0907F0
:1030C000A76043F60C47C4F201073A689B0242EA44
:1030D000090358BF22EA09033B6053E703B0BDE888
:1030E000F08F00000069084018BF01207047000001
:1030F000002A08BF09048161704700004BF27C0080
:10310000C2F200000068704740F254004BF27C01AC
:10311000C2F20000C2F2000100780A6810440860A0
:103120007047000080B543F60040C4F20200016819
:1031300041F400710160016841F48061016001683F
:1031400041F480710160032000F088F8002000F055
:1031500005F800F04BF8002080BD000010B586B0E7
:10316000014637200022002400F068F8372000F0E4
:1031700061F843F640000194C4F20200016841F096
:10318000200101600068694600F02000019001986C
:1031900001A800F017F900F03BF94DF683614000FB
:1031A000C4F21B31A0FB01014FF0FF3000EB914155
:1031B00042F2A04041F20042C2F20000C4F200021A
:1031C00040F2E733C0E90021C0E90243046100F0A6
:1031D00001FD10B1012006B010BD42F2A040C2F2C4
:1031E000000000F091FD06B010BD000080B582B077
:1031F000002043F640010190C4F202014A6842F403
:1032000080424A604A6802F480420192019A00902A
:103210000868002240F08050086008680F2100F024
:103220008050009000986FF0010000F007F802B0A5
:1032300080BD000080B505F035F880BD70B514463E
:103240000D46064605F03EF82946224602F09CFA55
:103250000146304605F03EF870BD000080B505F02F
:1032600053F880BD2DE9F041002800F08B8043F633
:103270000808C4F202080446D8F8F8030D4600F026
:103280000700884207D288F8F853D8F8F80300F00E
:103290000700A84276D12068810717D5410705D5D8
:1032A000D8F8001041F4E051C8F80010010705D526
:1032B000D8F8001041F46041C8F80010D8F80010A8
:1032C000A26821F0F0011143C8F80010C0073FD1F7
:1032D000D8F8F80300F00700A84207D988F8F85397
:1032E000D8F8F80300F00700A8424BD12068410746
:1032F00007D5D8F80010E26821F4E0511143C8F86E
:103300000010000708D5D8F80000216920F46040BB
:1033100040EAC100C8F8000000F09EF8D8F800109C
:103320004EF27E22C1F30311C0F60002515C40F25E
:10333000080220FA01F140F25800C2F200000068D1
:10334000C2F200021160FFF709FF0020BDE8F08122
:103350006068811E022907D258F8081C89015CBFE9
:103360000120BDE8F08110E0012807D158F8081CC1
:1033700089035CBF0120BDE8F08106E058F8081C15
:10338000890702D40120BDE8F081D8F8001021F0AF
:1033900003010843C8F80000FFF7B0FE064641F2FB
:1033A000883700BFD8F80000616800F00C00B0EB6F
:1033B000810F8DD0FFF7A2FE801BB842F2D9032007
:1033C000BDE8F0810F22026043F60802C4F2020257
:1033D000136803F003034360136803F0F003836092
:1033E000136803F4E053C360D2F800C04FF4E05315
:1033F00003EADC030361D2F8F80300F00700086079
:103400007047000040F20800C2F2000000687047F8
:1034100080B5FFF7F7FF43F60801C4F2020109681F
:103420004EF28E22C1F38221C0F60002515CC840E8
:1034300080BD000080B5FFF7E5FF43F60801C4F248
:10344000020109684EF28E22C1F34231C0F6000239
:10345000515CC84080BD000010B543F60404C4F2BE
:103460000204606800F00C0142F200400829C0F23A
:10347000F40007D0042918BF10BD41F20020C0F2AB
:103480007A0010BD216801F03F02216823684902DB
:10349000C3F3881105D4A1FB00010023FCF790FEC3
:1034A00006E041F20020C0F27A004843B0FBF2F09F
:1034B00021680222C1F3014102EB4101B0FBF1F0AE
:1034C00010BD00002DE9F04182B0002800F09F807F
:1034D0000446007843F60006C007C4F2020641D055
:1034E000B06800F00C00042805D13068800339D59D
:1034F0006068B8BB8BE0B06800F00C00082802D10F
:1035000070684002F1D46568B5F5803F06D0306838
:10351000B5F5A02F06D140F480203060306840F42B
:10352000803005E020F480303060306820F4802066
:103530003060FFF7E3FD002D054610D030688003B2
:1035400010D4FFF7DBFD401B6428F7D922E100BF50
:10355000FFF7D4FD401B64284FF0030054D83068B7
:103560008003F5D4207880071AD5B06810F00C0FCE
:1035700009D0B06800F00C00082840F08C8070681A
:10358000400200F188803068800702D5E068012899
:103590003DD13068216920F0F80040EAC100306078
:1035A0002078000737D4207840074AD4A56955B35E
:1035B000B06800F00C00082840F0A080012D26D053
:1035C0007068E16900F480028A4220D1216A00F02B
:1035D0003F028A421BD147F6C071626A0140B1EBDB
:1035E000821F14D1A16A4FF6FF73C903994300F4F7
:1035F0004032A1F580318A4209D1E16A00F0706061
:10360000B0EB016F03D1002002B0BDE8F0810120D2
:1036100002B0BDE8F0816069002840F20000C4F209
:1036200047205AD00121C0F8801EFFF767FD0546EC
:10363000706F8007B7D4FFF761FD401B0228F7D9F0
:10364000A8E0306C4FF00008C0000CD4CDF8048026
:10365000306C4FF0010840F080503064306C00F066
:1036600080500190019847F20007C4F200073868C3
:10367000C00525D4386840F480703860FFF73EFDFF
:10368000054600BF3868C0051AD4FFF737FD401B58
:103690000228F7D97EE0E068002851D00020C4F26B
:1036A000472001210160FFF729FD054630688007AA
:1036B0003FF56FAFFFF722FD401B0228F6D969E006
:1036C000A568012D05D0306F052D4DD140F00400C7
:1036D0003067306F40F001004CE00021C0F8801EE0
:1036E000FFF70CFD054600BF706F80077FF55BAFED
:1036F000FFF704FD401B0228F6D94BE00027C4F277
:10370000472700203866FFF7F9FC022D05460BD14C
:103710003068800156D5FFF7F1FC401B02284FF0BE
:103720000300F5D970E700BF306880017FF56BAF0B
:10373000FFF7E4FC401B02284FF00300F4D963E7D5
:103740000020C4F2472000210160FFF7D7FC0546A6
:10375000306880077FF524AFFFF7D0FC401B0228BC
:103760004FF00300F4D94FE720F001003067306FCD
:1037700020F004003067FFF7C1FC002D054641F240
:10378000883713D0306F800713D4FFF7B7FC401B86
:10379000B842F7D9032002B0BDE8F081FFF7AEFCD4
:1037A000401BB8424FF003003FF62EAF306F80074A
:1037B000F4D4B8F1000F3FF4F9AE306C20F0805033
:1037C0003064F3E604F11C052FCD084340EA821073
:1037D000D9034FF6FF729143A1F5803140EA0560AD
:1037E0000843706001203866FFF788FC044600BF7C
:1037F000306880013FF507AFFFF780FC001B02280F
:103800004FF00300F4D9FFE670B538B10446406AC2
:1038100030B10020206104F1140007E0012070BDE8
:103820006068B0F5827F03D004F11C0000210160C4
:103830000026A66294F8510020B9204684F8506012
:1038400000F03CF8022084F8510094E80F0001F4E5
:103850008271056802F4044225F0400505601144B8
:1038600003F400622369114403F002026369114406
:1038700003F00102A369E569114403F400721144E5
:1038800005F03802256A114405F08002A56A11434B
:1038900005F4005211430160626A042101EA1341F8
:1038A00002F0100211444160C16921F40061C1615C
:1038B0000120666584F85100304670BD80B586B041
:1038C00000220592CDE9032243F200010068C4F210
:1038D000010188420292019201D006B080BD43F6F8
:1038E00030000092C4F20200436943F48053436104
:1038F000436903F480530093009B0092036843F0F4
:1039000001030360006800F0010000900098E020CF
:1039100001900220CDE902020320049005200590C9
:1039200001F5504001A9FFF711FB06B080BD000072
:103930002DE9F04381B0044690F85000012803D1EE
:10394000022001B0BDE8F08301201E4615460F4657
:1039500084F85000FFF7D2FB94F8511081460129FA
:103960000CD06068B0F5827F76D104294FF0020058
:1039700040F0C680A168002940F0C280002F4FF0BF
:10398000010018BF002D00F0BB80002E00F0B880B1
:1039900094F85100002104281CBF052084F8510030
:1039A0006165A563E687A6872763E6862068A68605
:1039B000216461640168490603D4016841F0400153
:1039C00001606168731EE268B1FA81F1B3FA83F3B2
:1039D000DDF8208049095B09B2F5006F41EA030177
:1039E0003CD139B1216B0988C160B81C2063E08EDD
:1039F0000138E086012608F1010500BFE08E10B90C
:103A0000E08F002866D02068816889070CD5E18E98
:103A1000012E09D141B1216B002631F8022BC26081
:103A20002163E18E0139E1868168C9070AD0E18FFF
:103A300041B1C068A16B012621F8020BA163E08FA0
:103A40000138E087FFF75AFB002DD7D0A0EB090023
:103A50004045D3D3032053E0022051E039B13978F7
:103A60000173206B01302063E08E0138E08601266F
:103A700008F10105E08E08B9E08F58B3206881682D
:103A800089070DD5E18E012E0AD149B1216B00269F
:103A900009780173206B01302063E08E0138E086E5
:103AA00020688168C9070BD0E18F49B1C068A16B5C
:103AB00001260870A06B0130A063E08F0138E08719
:103AC000FFF71CFB002DD5D0A0EB09004045D1D35A
:103AD000032015E0204641464A4602F0C3F918B1DA
:103AE0002020606501200BE0A06800284FF0000056
:103AF00006D100902168CA680092896800910099F7
:103B0000012184F85110002184F8501001B0BDE863
:103B1000F0830000704700007047000010B590F877
:103B20003C20012A4FF0020252D0012380F83C30A1
:103B300080F83D200268D2F804E0D2F808C00C6892
:103B40002EF07003234341F2FF74C4F20004A2423A
:103B500053600DDC40F2FF73C4F200039A4215DC9F
:103B6000B2F1804F29D040F20043C4F2000322E0BA
:103B700040F2FF33C4F201039A4212DC41F6000323
:103B8000C4F200039A4218D0002312E040F600036A
:103B9000C4F200039A4210D040F60043C4F200037E
:103BA00009E044F20003C4F201039A4205D040F256
:103BB0000043C4F201039A4204D149682CF0800307
:103BC000194391600121002280F83D1080F83C20CB
:103BD000104610BD002804BF0120704710B50446F0
:103BE00090F83D0028B9002084F83C00204600F001
:103BF0001FF8022084F83D002068211D03F068FCB6
:103C0000012084F8460084F83E0084F83F0084F8E0
:103C1000400084F8410084F8420084F8430084F8AE
:103C2000440084F8450084F83D00002010BD0000E9
:103C300081B0006840F20041C4F20001884201D026
:103C400001B070470020009043F64000C4F202002B
:103C5000016841F002010160006800F0020000907C
:103C6000009801B07047000090F83D1001291CBF7A
:103C700001207047022180F83D10006841F2FF7179
:103C8000C4F2000188420DDC40F2FF71C4F2000171
:103C9000884215DCB0F1804F29D040F20041C4F2D7
:103CA000000122E040F2FF31C4F20101884212DC3F
:103CB00041F60001C4F20001884218D0002112E050
:103CC00040F60001C4F20001884210D040F60041E5
:103CD000C4F2000109E044F20001C4F2010188428B
:103CE00005D040F20041C4F20101884206D181684A
:103CF00001F00701062904BF00207047016841F068
:103D0000010101600020704790F83D1001291CBF9F
:103D100001207047022180F83D10006841F2FF72D7
:103D2000C168C4F20002904241F00101C1600DDCA3
:103D300040F2FF71C4F20001884215DCB0F1804FFF
:103D400029D040F20041C4F2000122E040F2FF31EC
:103D5000C4F20101884212DC41F60001C4F2000104
:103D6000884218D0002112E040F60001C4F20001A0
:103D7000884210D040F60041C4F2000109E044F24C
:103D80000001C4F20101884205D040F20041C4F2B2
:103D90000101884206D1816801F00701062904BFAC
:103DA00000207047016841F0010101600020704768
:103DB00010B5044690F83C0001284FF0020008BFFF
:103DC00010BD012284F83C2084F83D0020684FF6A5
:103DD000777382689A4382600A683F2A14DD5F2AFB
:103DE00018DD602A28D0B2F5005F2DD0702A40D1AE
:103DF000D1E9012CCB68614603F00EFC2068816894
:103E000041F07701816034E01F2A0FDC92B1102A63
:103E100010D02EE0402A23D0502A2AD14B68CA68FD
:103E2000194603F0D3FC2068502120E0202A01D05D
:103E3000302A1ED111461AE04B68CA68194603F0B1
:103E4000D7FC2068602112E0D1E9012CCB686146E3
:103E500003F0E2FB2068816841F48041816008E062
:103E60004B68CA68194603F0B1FC2068402103F092
:103E7000DFFB012084F83D00002084F83C0010BDE9
:103E80007047000010B5044600680169890744BF07
:103E9000C1685FEA817138D420680169490744BF6D
:103EA000C1685FEA41713CD420680169090744BFD9
:103EB000C1685FEA017141D420680169C90644BF45
:103EC000C1685FEAC16145D420680169C9071CBFA8
:103ED000C1685FEAC1714AD120680169090644BF1F
:103EE000C1685FEA016149D420680169490644BF9D
:103EF000C1685FEA416148D420680169890644BF0E
:103F0000C1685FEA816147D410BD6FF002010161B1
:103F1000012121778069800745D02046FFF7B0FF57
:103F200047E06FF00401016102212177806910F4FC
:103F3000407F41D02046FFF7A3FF43E06FF0080128
:103F4000016104212177C06980073ED02046FFF738
:103F500097FF40E06FF01001016108212177C069EF
:103F600010F4407F3AD02046FFF78AFF3CE06FF024
:103F700001010161204600F0A7F9ADE76FF0800173
:103F800001612046FFF7C6FDAEE76FF04001016119
:103F9000204600F0A5F9AFE76FF02001016120464F
:103FA000FFF7BAFD10BD204600F050F8204600F0A3
:103FB000CBF8002020776FE7204600F047F8204636
:103FC00000F0C2F8002020776EE7204600F03EF8AF
:103FD000204600F0B9F8002020776DE7204600F079
:103FE00035F8204600F0B0F8002020776CE700009C
:103FF00080B586B000220592CDE9032240F200414F
:104000000068C4F2000188420292019201D006B019
:1040100080BD43F630000092C4F20200036843F012
:1040200002030360006800F0020000900098102076
:1040300001900220CDE90202CDE9042001F5003013
:1040400001A9FEF783FF06B080BD000070470000A5
:10405000B0B5044690F83C00012804BF0220B0BD72
:104060004FEAB2000D460121032884F83C1036D8EF
:10407000DFE800F0020A12222068294603F0E0FA85
:10408000206850F8181F0EE02068294603F00AFB4C
:10409000206850F8181F16E02068294603F038FB06
:1040A000206850F81C1F41F008010160016821F0F0
:1040B0000401016029690FE02068294603F05EFBD6
:1040C000206850F81C1F41F400610160016821F470
:1040D00080610160296909020268114301600020C2
:1040E00084F83C00B0BD0000002804BF01207047E8
:1040F00010B5044690F83D0028B9002084F83C0033
:10410000204600F01FF8022084F83D002068211DA1
:1041100003F0DEF9012084F8460084F83E0084F8BC
:104120003F0084F8400084F8410084F8420084F89D
:10413000430084F8440084F8450084F83D000020E2
:1041400010BD0000704700007047000010B5044625
:1041500041B1082909D0042914BF04F1410004F138
:104160003F0004E004F13E0001E004F1400000786B
:1041700001281CBF012010BD022041B1082909D02F
:10418000042914BF84F8410084F83F0004E084F857
:104190003E0001E084F840002068012203F02AFA82
:1041A000206840F2004140F48062C4F201018A427A
:1041B00003D1426C42F40042426441F2FF72C4F205
:1041C000000290420DDC40F2FF71C4F2000188420F
:1041D00017DCB0F1804F27D040F20041C4F200015B
:1041E00020E040F2FF32C4F20102904214DC41F6BA
:1041F0000001C4F20001884216D00021C4F201017E
:1042000010E040F60001C4F2000188420CD040F6F4
:104210000041C4F2000105E044F20002C4F20102D0
:10422000904201D0884206D1816801F00701062939
:1042300004BF002010BD016841F0010101600020B1
:1042400010BD0000B0B50446006800220D4603F022
:10425000D1F9206840F2004240F48061C4F20102CA
:1042600091420DD1016A41F21112114208D1016A45
:1042700040F24442114203D1416C21F400414164B7
:10428000016A41F21112114208D1016A40F244421E
:10429000114203D1016821F0010101600120082DC4
:1042A00009D0042D0BD0002D14BF84F8410084F8F0
:1042B0003E000020B0BD84F840000020B0BD84F86E
:1042C0003F000020B0BD000080B5006841F2004111
:1042D000C4F20001884208BFFEF716FF80BD00004F
:1042E000704700007047000010B50446006841693F
:1042F00094F83D20212A0ED111F080010BD04169A4
:1043000021F080014161606B002818BFFEF752FC6C
:10431000204603F039FB2068416994F83E20222AA8
:104320000ED111F040010BD0416921F040014161F3
:10433000A06B002818BFFEF73DFC204603F002FBEF
:10434000002010BD7047000070B582B001680446BF
:104350000868CA684D6900F02F03202B02F0200383
:1043600005D123B1204603F019FB02B070BD5FEA0E
:10437000007C07D005F0010E12F4907F8EF001054D
:1043800026D12DB3236B1040C20617D5012B15D1B2
:1043900000200190086801904868019001984869E0
:1043A00040066CD4A08DE28DE38D002B1CBF801ADB
:1043B0005FEA004240F09D8002B070BD010600F14E
:1043C00087804006F8D5204603F0D2FA02B070BDCF
:1043D000C10718BF12F4807103D0216C41F00101B4
:1043E000216400F00406012181EA96062E4303D1E0
:1043F000266C46F00206266400F0020681EA5601A9
:10440000294303D1216C41F0040121645EEA0301D8
:1044100018BF0121BCF1000F04D519B1216C41F086
:1044200008012164216C0029C6D01040800602D505
:10443000204603F0B3FA20684069216C00F0400088
:1044400001F0080140184DD0204603F07BFA2068A7
:104450004169490641D5416921F040014161A06BA4
:10446000D8B347F67901C0F600010165FEF7E8FB15
:104470000028A1D0A06B016D884702B070BDA06B71
:104480000268526893B2002B96D0A68DB34293D2A5
:10449000E285C269B2F5807F16D0CA6822F48072C4
:1044A000CA604A6922F001024A614A6922F0400268
:1044B0004A61202284F83E2000222263CA6822F04A
:1044C0001002CA60FEF776FBA08DE18D401A21E054
:1044D000204603F05BFB02B070BD2046FFF732FFC1
:1044E00002B070BD2046FFF72DFF0020206402B00F
:1044F00070BDCA6822F49072CA604A6922F0010253
:104500004A61202284F83E2000222263CA6822F0F9
:104510001002CA6081B22046FFF7E4FE02B070BD0F
:10452000002804BF0120704710B5044690F83D00F4
:1045300028B9002084F83C00204600F021F824200F
:1045400084F83D002068C16821F40051C160204614
:1045500003F074FA2068016921F490410161416916
:1045600021F02A014161C16841F40051C16000207D
:104570002021206484F83D1084F83E1010BD000016
:1045800070B586B00026CDE90466CDE90266044622
:10459000006844F20041C4F20001884201965BD0F9
:1045A00041F20041C4F20101884200F09E8041F2D4
:1045B0000001C4F20101884240F0F380002643F676
:1045C00030000096C4F20200416941F010014161DF
:1045D000416901F01001009100990096016841F0D5
:1045E00001010160006801A900F00100009000983D
:1045F0004FF4C06001900220CDE902060320049030
:10460000072005900020C4F20200FEF79FFC46F24E
:104610008800C4F2020042F2E02500F56E70C2F29A
:1046200000054FF000614FF4806285E843002846A2
:10463000C5E90362C5E90566C5E907666E62FEF76E
:10464000D7FB002800F09E80FEF78AF842F2E025B2
:104650002526C2F200059AE043F630000096C4F227
:104660000200016941F400310161016901F4003186
:10467000009100990096016841F001010160006815
:1046800001A900F00100009000980C200190022088
:10469000CDE9020603200490072005900020C4F213
:1046A0000200FEF753FC42F2403546F28800C2F2A7
:1046B0000005C4F202004FF000614FF4806285E80B
:1046C00043002846C5E90362C5E90566C5E90766F2
:1046D0006E62FEF78DFB002856D0FEF741F842F2DD
:1046E00040352626C2F2000551E0002643F6300090
:1046F0000096C4F20200416941F020014161416924
:1047000001F02001009100990096016841F0040138
:104710000160006801A900F0040000900098C0202A
:1047200001900220CDE902060320049008200590A4
:104730000020C4F2020000F50060FEF707FC46F21C
:104740008800C4F2020042F2A03500F56870C2F29F
:1047500000054FF020614FF4806285E84300284651
:10476000C5E90362C5E90566C5E907666E62FEF73D
:104770003FFB58B1FDF7F4FF42F2A0354726C2F2E5
:10478000000504E0252602E0262600E04726304604
:1047900005210022A563AC63FEF750FD3046FEF70D
:1047A00049FD06B070BD000010B590F83E30202BDA
:1047B0000BD100294FF0010418BF002A01D1204677
:1047C00010BD90F83C30012B01D1022010BD012317
:1047D000002480F83C30046303F09EF9204610BDAD
:1047E00070470000704700002DE9F04381B0044697
:1047F00090F83D0020280BD10E4600294FF0010013
:1048000055D01746002A52D094F83C00012803D115
:10481000022001B0BDE8F083012084F83C004FF095
:10482000000921201D46C4F8409084F83D00FEF7A1
:1048300065FCA784E784A1680746B1F5805F07D1CE
:10484000206900281CBF30464E46B046064601E0AF
:104850004FF0000884F83C9007E000BF16F8010B09
:1048600021684860E08C0138E084E08C80B120460B
:1048700080213A462B4603F0B3F980B9002EEDD1E2
:1048800038F8020B21686FF35F2048600026E9E7E3
:10489000204640213A462B4603F0A2F918B10320E6
:1048A00001B0BDE8F083202084F83D00002001B075
:1048B000BDE8F08370470000FEE7000010B540F24D
:1048C0000044C4F2020420464FF400410022FEF7E7
:1048D0000FFC00F03BF920464FF400510022FEF798
:1048E00007FC00F033F920464FF400410122FEF7A7
:1048F000FFFB00F02BF920464FF400410022FEF7A9
:10490000F7FB00F023F910BD10B540F20044C4F2EB
:10491000020420464FF400410022FEF7E9FB00F0BC
:1049200015F920464FF400510122FEF7E1FB00F09B
:104930000DF920464FF400410122FEF7D9FB00F0AB
:1049400005F920464FF400410022FEF7D1FB00F0AC
:10495000FDF810BD70B540F20044C4F202042046D8
:104960004FF400510122FEF7C3FB0826002500BFCB
:1049700020464FF400410022013EFEF7B9FB00F053
:10498000E5F820464FF400410122FEF7B1FB00F0AC
:10499000DDF820464FF40051FEF7A4FB002818BFB5
:1049A0000120310640EA4505E2D120464FF400419E
:1049B0000022FEF79DFBE8B270BD0000F0B581B0AB
:1049C00040F20045C4F20205044628464FF4004177
:1049D0000022FEF78DFB072600F0B8F8E0B2C2090E
:1049E00028464FF40051FEF783FB640000F0AEF858
:1049F00028464FF400410122FEF77AFB00F0A6F8AA
:104A000028464FF400410022771EFEF771FB300666
:104A10003E46E1D101B0F0BDB0B540F20044C4F271
:104A2000020420464FF400510122FEF761FB2046AC
:104A30004FF400410122FEF75BFB00F087F82046AF
:104A40004FF40051FEF74EFB80B120464FF4005169
:104A500000220025FEF74CFB00F078F820464FF4CA
:104A60000051FEF73FFB18B12846B0BD0020B0BD95
:104A700020464FF400510022FEF73AFB00F066F8A2
:104A800001252846B0BD000010B540F20044C4F234
:104A9000020420464FF400410022FEF729FB00F0FB
:104AA00055F820464FF400510022FEF721FB00F09C
:104AB0004DF820464FF400410122FEF719FB00F0AB
:104AC00045F820464FF400510122FEF711FB00F09B
:104AD0003DF810BDB0B540F20044C4F202042046D7
:104AE0004FF400410022FEF703FB00F02FF82046B0
:104AF0004FF400510122FEF7FBFA00F027F82046A0
:104B00004FF400410122FEF7F3FA00F01FF82046AF
:104B10004FF40051FEF7E6FAB0FA80F0450920465E
:104B20004FF400410022FEF7E3FA2846B0BD000032
:104B300081B00A200090009830B100BF0098013881
:104B4000009000980028F9D101B0704781B00A2088
:104B50000090009830B100BF009801380090009894
:104B60000028F9D101B0704780B50020FDF7E0FCC6
:104B7000FDF736FB60B30320FDF766FDFDF7CCFAC9
:104B800014A016A1FDF74AFB10B3FDF78FFA002021
:104B90000021FDF787FD0020FDF72EFD41F2CC40FE
:104BA000C2F2000000F6284110A007F0B1FB44F665
:104BB000B630C0F6010041F2E101FDF73FFA0028EE
:104BC00008BF80BD0120FDF7B3FC0CA009F0BAF9C5
:104BD00080BD00BF4D6920313000000032303030E0
:104BE0003130333166637A6141000000537461747F
:104BF000696F6E206970203A25730A004553502072
:104C0000696E6974204F4B00F0B581B041F2000429
:104C1000C4F2020420460221FEF764FAB0FA80F0E2
:104C2000470920460421FEF75DFA05462046082183
:104C3000FEF758FA064620461021FEF753FA002DDB
:104C400008BF0137002E08BF0137002808BF013711
:104C5000381FB0FA80F0400901B0F0BD2DE9F043F3
:104C600083B040F26806C2F200068E46B6F9021022
:104C7000DDF82C90DDF82880A1EB0E079C46012F73
:104C800006DBACEB0703012B2FDB07FB089901E0E8
:104C900063467146B6F906700CEB0E05FF432F44D0
:104CA000012F02DBDB1B012B1FDBB6F904401518BB
:104CB000B6F90070E6432E44002EC8BF921B87420F
:104CC0000BDD3F1A27F00706D21B09EBE70930443A
:104CD00007F00706012A03DA07E00026012A04DBB1
:104CE000CDE90089029600F06BF803B0BDE8F083CF
:104CF00080B582B040F2680CC2F2000CBCF9023000
:104D00008B4219DCBCF906308B4215DBBCF9003054
:104D1000BCF904E08342C8BF18469645B8BF724646
:104D2000824209DB9CF81CC089B280B292B20B4669
:104D3000CDF800C001F05CF902B080BD80B540F252
:104D40006802C2F20002B2F902308B4211DCB2F901
:104D500006308B420DDBB2F90030834209DCB2F938
:104D600004308342B8BF80BD127F80B289B201F0A7
:104D7000D5F980BD80B582B040F2680CC2F2000C5B
:104D8000BCF90030834219DCBCF90430834215DBE6
:104D9000BCF90230BCF906E08B42C8BF1946964503
:104DA000B8BF72468A4209DB9CF81CC080B289B247
:104DB00093B20246CDF800C001F01AF902B080BDEE
:104DC0002DE9F04782B0012B15DBDDF83080DDE9FD
:104DD0000AA51C4691460E46074600BF3846314696
:104DE0002A464346CDF80090FCF7CCFA5544013CE6
:104DF00006F10106F2D102B0BDE8F08780B582B0BD
:104E0000014600208DF807000DF10700012202F095
:104E1000D5FF9DF8070002B080BD000080B582B0CC
:104E200001460020019001A8042202F0C7FF9DED79
:104E3000010A02B080BD000080B582B001460020AA
:104E4000ADF806000DF10600022202F0B7FFBDF832
:104E5000060002B080BD000080B582B0014600208F
:104E60008DF807000DF10700012202F0A7FF9DF861
:104E7000070002B080BD000010B5A0F1040C4FF097
:104E8000000E00BF6FF00303604600BF50F8042F10
:104E9000CC1804330C2B6260F8D10EF1010EBEF178
:104EA000040F0CF1100C01F1100108BF10BDE9E76F
:104EB0002DE9F041A1F1040CA2F1040E4FF000081D
:104EC00000EB08110A1D01F1080401F10C0504268C
:104ED0007746634691ED000A93ED011A93ED052A9A
:104EE00020EE010A92ED001A93ED093A21EE021A22
:104EF00094ED002A93ED0D4A30EE010A22EE031ADA
:104F000095ED002A30EE010A22EE041A30EE010A75
:104F1000043387ED010A0437013EDBD108F10108B3
:104F2000B8F1040F0EF1100E08BFBDE8F081C7E71D
:104F30002DE9F04381B02DED0A8B8CB00DF11E00F0
:104F40000DF11D0700900DF1260008A903AA0BAB77
:104F5000019703F0D7FBBDF81E00C00540F1D180DA
:104F60009DED030A9FED844A9DED041A9DED052AEF
:104F70009DED063AB8EEC00A40F21C0820EE040A85
:104F8000C2F2000888ED000AB8EEC11A42F62C39C8
:104F900021EE041AC2F2000989ED001AB8EEC22A05
:104FA00042F6303622EE042AC2F2000686ED002ACE
:104FB000B8EEC33A23EE043A31EE011A30EE000A9D
:104FC00021EE031A20EE020A42F6343730EE410A8F
:104FD000C2F2000710EE100A87ED003AFBF778FBEB
:104FE00041EC100B07F0F0F951EC100B9FED600B4A
:104FF00054EC105B2A462346FBF75DFAFBF77BFB7C
:1050000042F28011C2F20001086096ED009A98ED1C
:10501000001A97ED000A99ED00BA39EE09AA31EEAF
:10502000011A2AEE000A21EE0B1A30EE010A10EEE8
:10503000100AFBF74DFBB8EE000A2BEE000A2BEE30
:10504000000A29EE0A1A30EE410AB7EE001A30EED5
:10505000010A41EC180B10EE100AFBF739FB41EC8A
:10506000110BB0EE480AF0EE680A07F0C9FC51ECEB
:10507000100B2A462346FBF71EFAFBF73CFB42F2D5
:105080008411C2F20001086099ED009A96ED00AA21
:1050900098ED00BA97ED00CA29EE0A0A2BEE0C1A19
:1050A00030EE010A30EE000A10EE100AFBF710FB9A
:1050B0002BEE0B0A29EE091A31EE000A2AEE0A1A23
:1050C00030EE410A2CEE0C1A30EE410A41EC180B7E
:1050D00010EE100AFBF7FCFA41EC110BB0EE480A97
:1050E000F0EE680A07F08CFC51EC100B2A462346C0
:1050F000FBF7E1F9FBF7FFFA42F28811C2F2000177
:105100000860BDF81E0010F0700F14D0BDF8261016
:1051100042F2D822C2F200021180BDF8281042F2F9
:10512000DA22C2F200021180BDF82A1042F2DC221B
:10513000C2F200021180000714D5BDF8200041F230
:10514000AC41C2F200010880BDF8220041F2AE413C
:10515000C2F200010880BDF8240041F2B041C2F261
:10516000000108800CB0BDEC0A8B01B0BDE8F083F3
:105170006666666666A64C400000803010B504F096
:10518000D3FA00281CBF002010BD43A008F0DAFEAF
:10519000782005F05BF810B1002448A077E044F6D1
:1051A0009550C0F6010008F0CDFE782004F0E8F933
:1051B00010B100244BA06AE044F67250C0F6010022
:1051C00008F0C0FE322004F0FBFF28B144F6B450D2
:1051D0000024C0F601005AE044F6E640C0F60100A3
:1051E00008F0B0FE03F080FA28B144F6D550002450
:1051F000C0F601004BE044F69340C0F6010008F011
:10520000A1FE04F06FF903F03DFC28B144F6906074
:105210000024C0F601003AE044F64E50C0F601000A
:1052200008F090FE40F2731003F02CF928B144F618
:105230000E600024C0F6010029E044F6C340C0F629
:10524000010008F07FFE322003F08CFB28B144F609
:105250003A600024C0F6010019E044F60A50C0F696
:10526000010008F06FFE05F08DFE012004F0B6FE8F
:105270000146B0FA80F0440944F6656044F62C52C9
:10528000C0F60100C0F60102002908BF104608F070
:1052900059FE204610BD00BF6D707520696E69749F
:1052A00069616C697A6174696F6E20636F6D706C8F
:1052B0006574652E2E2E2E2E2E0000006D70755FEB
:1052C0007365745F73656E736F7220636F6D6520B5
:1052D0006163726F7373206572726F72202E2E2E4F
:1052E0002E2E2E006D70755F636F6E666967757226
:1052F000655F6669666F20636F6D65206163726FBD
:105300007373206572726F72202E2E2E2E2E2E0039
:1053100080B582B0002043F630010190C4F2020152
:105320000A6842F400120A600A6802F4001201924C
:10533000019A00900868002240F480000860086824
:10534000052100F48000009000981020FDF776FF02
:105350001020FDF76FFF392005210022FDF76EFFB9
:105360003920FDF767FF3A2005210022FDF766FF8F
:105370003A20FDF75FFF02B080BD000080B546F621
:10538000A16040F22822C0F60000C0F60102002110
:1053900005F034F840F29401C2F20001086046F6CC
:1053A0009D2040F20422C0F60000C0F60102002158
:1053B00005F024F840F29001C2F20001086047F2C3
:1053C000891040F24C22C0F60000C0F60102002114
:1053D00005F014F840F2A041C2F20001086046F660
:1053E00059204EF21C32C0F60000C0F60002002127
:1053F00005F004F840F26401C2F20001086046F2D0
:1054000051504EF2F822C0F60000C0F60002002112
:1054100004F0F4FF40F26001C2F20001086080BDB8
:105420002DE9F04F87B0002443F630000694CDE913
:105430000444CDE902440194C4F20200016841F23F
:10544000000741F0100101600168C4F2020701F099
:1054500010010191019901940168A7F5006941F0DB
:10546000800101600168002201F080010191019931
:105470000194016841F001010160016801F001013E
:10548000019101990194016841F0040101600168F2
:1054900001F00401019101990194016841F00201B8
:1054A0000160016801F00201019101990194016814
:1054B00041F00801016000684FF4716100F00800DC
:1054C000019001984846FDF713FE38464FF47F419E
:1054D00001224FF0010BFDF70BFEA7F540663046A9
:1054E0004AF2C0410022FDF703FEA7F5805840466E
:1054F0004FF419410022FDF7FBFDA7F5806A5046E5
:1055000004210022FDF7F4FD384601210022FDF7B9
:10551000EFFD1E2002A902AD81E811083846294698
:10552000FDF714FD6020CDE9020402200490384606
:105530002946FDF70BFD4FF47160CDE9020B48469B
:105540002946CDE90444FDF701FD4FF60170CDE990
:10555000020B38462946CDE90444FDF7F7FC4FF429
:105560008060CDE9020B30462946CDE90444FDF7C1
:10557000EDFC4AF2C00002901120CDE90304304650
:1055800029460594FDF7E2FC4FF41940CDE9020BE2
:1055900040462946CDE90444FDF7D8FC0420CDE976
:1055A000020B50462946CDE90444FDF7CFFC082004
:1055B000CDE90204504629460494FDF7C7FC07B024
:1055C000BDE8F08F80B542F2004043F20001C2F224
:1055D0000000C4F201014FF4827200234FF4007CFA
:1055E00080E80E000A21C0E90333C0E9053CC3612D
:1055F000C0E90833C0E90A31FEF706F9002818BFF0
:10560000FDF7AEF880BD000010B58EB042F25840F4
:1056100040F200420021C2F20000C4F20002532313
:1056200040F2E7340D91CDE90B11CDE90911CDE937
:105630000711CDE90511CDE90311CDE90111C0E94B
:105640000023C0E9021401618161FEF7C3FA00285A
:1056500018BFFDF785F84FF480500A9042F2584089
:10566000C2F200000AA9FEF7A3FB002818BFFDF74D
:1056700077F842F25840C2F20000FEF735FD0028EC
:1056800018BFFDF76DF842F258400024C2F2000046
:1056900008A9CDE90844FEF741FA002818BFFDF734
:1056A0005FF8602001904FF4FA70CDE9020442F2F5
:1056B0005840C2F2000001A900220594FEF7C8FC80
:1056C000002818BFFDF74CF842F25840C2F2000023
:1056D000FEF78EFC0EB010BD80B542F2E84041F2FC
:1056E0000001C2F20000C4F2010100234FF00C0CD3
:1056F0004FF4E13280E80E00C0E90333C0E905C38E
:10570000C361FEF70DFF002818BFFDF729F880BD23
:1057100080B542F22C5044F20041C2F20000C4F2C3
:10572000000100234FF00C0C4FF4164280E80E00ED
:10573000C0E90333C0E905C3C361FEF7F1FE0028E9
:1057400018BFFDF70DF880BD80B542F2705041F2F0
:105750000041C2F20000C4F2010100234FF00C0C22
:105760004FF4E13280E80E00C0E90333C0E905C31D
:10577000C361FEF7D5FE002818BFFCF7F1FF80BD1E
:10578000FEE700007047000000F0070080F007030C
:10579000042B28BF04234FF0FF3C03380CFA03F31B
:1057A00038BF0020994381400CFA00F022EA000043
:1057B0000843704710B540F20044C4F2020420468A
:1057C00080210122FDF794FCFFF7B2F92046402129
:1057D0000122FDF78DFCFFF7ABF9204640210022A6
:1057E000FDF786FC10BD000070B540F20045C4F224
:1057F000020504462846402100220026FDF778FCD9
:10580000E0B2C20928468021FDF772FC6400FFF770
:105810008FF9284640210122FDF76AFCFFF788F93D
:10582000284640210022FDF763FCFFF781F9072E8F
:1058300006F10106E4D370BD10B540F20044C4F295
:105840000204204680210122FDF752FC204640211F
:105850000122FDF74DFCFFF76BF920468021002265
:10586000FDF746FCFFF764F9204640210022FDF7D2
:105870003FFC10BD10B540F20044C4F202042046C3
:1058800040210022FDF734FC204680210022FDF754
:105890002FFCFFF74DF9204640210122FDF728FC9F
:1058A000204680210122FDF723FCFFF741F910BDBE
:1058B000EFF30980BFF36F8F154B1A681EF0100FBE
:1058C00008BF20ED108A20E9F04F10602DE9090093
:1058D0004FF0500080F31188BFF34F8FBFF36F8FED
:1058E00005F04AFE4FF0000080F31188BDE8090082
:1058F00019680868B0E8F04F1EF0100F08BFB0EC50
:10590000108A80F30988BFF36F8F704700BF00BF14
:10591000B42600209FED152AB5EE401A20EE020AAB
:1059200031EE023A9FED124AF1EE10FA08BFB0EEE6
:10593000443A80EE030A20EE821A81EE031A02EE48
:10594000101AB8EEC22A30EE020ABDEEC00A10EEFE
:10595000101A00EE102A0160B8EEC00A31EE000AFB
:10596000BDEEC00A10EE101A4160704700000044FE
:10597000004000442DE9F04F81B02DED068BAAB018
:105980001AAD0790284614460E46B0EE418AB0EE96
:10599000609AB0EE40AA05F08BFB28466FF0070135
:1059A0006FF007026FF0070301F034FFB0EE000A5A
:1059B0002846F0EE400AB0EE401A00F005FD2846F9
:1059C000B0EE4A0AF0EE490AB0EE481A00F0FCF8D0
:1059D0002846002100220023002501F01BFF4EF283
:1059E0009820C0F60000A0F1080A0FFA86FB0FFA13
:1059F00084F80DF1280900BF0AF1080090EC030AB1
:105A00001AA80AF10C0A05F005FE08A859464246F4
:105A1000FFF780FFDDE9080148F21F5700F54872E3
:105A2000C5F2EB17A2FB076748F6890649F835006F
:105A3000380A4FF4487701F5F073C8F6880600FB82
:105A40001720A3FB066409EBC502516049F8350035
:105A5000200A0001A0EB14200135A3EB4010082D13
:105A60005060C9D10798FDF76BF80A9C0B9DDDE9E2
:105A70000C892046294642464B4605940495CDF8AC
:105A80000C80CDF80890FCF7DDFFDDE90E672046BD
:105A9000294632463B4601960097FCF7D3FF109CFF
:105AA000119D2046294642464B4607940695FCF731
:105AB000C9FF2046294632463B46FCF7C3FF0DF19D
:105AC000480999E8C0033946304642464B46FCF740
:105AD000B9FFDDE916AB3046394652465B46FCF766
